:020000040002F8
:100100005D0B0200EB0102002B0202003D02020027
:1001100015020200170202001F0202006F0B02000C
:1001200040BA704740BA704740BA704740BA70470B
:1001300040BA704740BA704740BA704740BA7047FB
:1001400040BA704740BA704740BA7047C0BA70476B
:10015000C0BA7047C0BA7047C0BA7047C0BA7047DB
:10016000C0BA7047C0BA7047C0BA7047C0BA7047CB
:10017000C0BA7047C0BA70470EB501210B2001F01C
:1001800035FA00210B2001F043FA0121052001F08E
:100190002DFA0121052001F03BFA2BA00068029006
:1001A000002102A801F04CFA0920009008200190DB
:1001B000684600F0CFFA00F02DFC00F097FB012319
:1001C00020228021214801F0F9F901F08DF900F099
:1001D000C7FB1F49002008600221102001F012FA1D
:1001E0000321042001F002FA0EBD10B5FFF7C4FF91
:1001F00001F058F9024614320021164801F02CFA99
:1002000010BD10B500F08EFA13A001F033F901F023
:100210003DF910BD704710B501F038F910BD0C4B19
:100220009B68002B00D01847704710B500F001FA0A
:1002300007480068002800D0804710BD0448406887
:10024000002800D0004770471C1D1E0030300020E1
:1002500000300020130302004A554D5000000000FA
:1002600010B501F041F900F07BFB0A4801F0B0F94C
:100270000A21002308A2084601F080F900F070FB73
:100280000121032001F0B2F90021032001F0C0F99F
:1002900010BD0000802E0200427965204279652061
:1002A0002E2E2E0010B5042001F09AF9002809D155
:1002B0000121032001F09AF90121032001F0A8F99E
:1002C000FFF79FFF10BD38B5042001F089F9002821
:1002D00015D11F4C0A21207814230A30C2B2227093
:1002E0000020009008460A3201F05CF900F038FB6B
:1002F0002078642804D30021164801F0B3F938BDF2
:1003000001F0D0F802460A320021134801F0A4F9A6
:1003100038BD38B50E4800240470042001F060F99F
:10032000002812D101F0E0F80A2114236E220846B9
:10033000009401F017F900F013FB01F0B3F8024646
:100340000A320021044801F087F938BD7047704730
:100350000C300020A5020200C702020000B53048A0
:10036000A1B00078002812D001F0BEF82D482EA1CF
:100370000268684600F06EFE2E4801F029F90A2155
:1003800000236A46084601F0F9F800F0E9FA21B0C6
:1003900000BD08B528A000680090684601F04AF941
:1003A00001F042F908BD1F480168491C0160D5E70A
:1003B0001C4810B5001D0178491E01704178C831F4
:1003C000417081786431817001F034F901F02CF9C9
:1003D00010BD144810B5FF21001D017000214170AF
:1003E0008170174A15481060174A164810600D486A
:1003F0000160174915480860092001F045F91548C2
:1004000001F048F9FFF7AAFF10BD10B50C49002014
:10041000086001F069F800F069FA00F0A1FA10BD77
:100420001D300020103000204E4F2E202530356426
:1004300000000000802E0200FF0000009303020075
:1004400020300020A703020000300020B10302008A
:1004500004300020350C000010B50A4801F0B8F84F
:100460000A21002308A2084601F088F800F078FA73
:1004700010BD10B501F038F800F038FA00F070FA4D
:1004800010BD0000802E020054696D6572000000EE
:1004900010B50A4801F09CF80A21002308A208467A
:1004A00001F06CF800F05CFA10BD10B501F01CF81A
:1004B00000F01CFA00F054FA10BD0000802E02007B
:1004C000547261696E31000010B50A4801F080F87D
:1004D0000A21002308A2084601F050F800F040FA73
:1004E00010BD10B501F000F800F000FA00F038FA85
:1004F00010BD0000802E0200547261696E3200004F
:1005000010B50A4801F064F80A21002308A2084641
:1005100001F034F800F024FA10BD10B500F0E4FF4B
:1005200000F0E4F900F01CFA10BD0000802E02007B
:10053000547261696E33000010B50A4801F048F842
:100540000A21002308A2084601F018F800F008FA72
:1005500010BD10B500F0C8FF00F0C8F900F000FAB7
:1005600010BD0000802E0200547261696E340000DC
:1005700010B50A4801F02CF80A21002308A2084609
:1005800000F0FCFF00F0ECF910BD10B500F0ACFF7E
:1005900000F0ACF900F0E4F910BD0000802E02007C
:1005A000436F756E7400000010B5654C2078030031
:1005B00000F07BFD0705080B0E1114171900FFF75B
:1005C00024FF10E0FFF755FF0DE0FFF76EFF0AE094
:1005D000FFF787FF07E0FFF7A0FF04E0FFF7B9FF91
:1005E00001E0FFF7D2FF2078401CC0B2207006283F
:1005F00001D900202070C0B2030000F056FD0705AD
:10060000080B0E1114170700FFF7E3FE10BDFFF7EC
:1006100023FF10BDFFF73CFF10BDFFF755FF10BDD6
:10062000FFF76EFF10BDFFF787FF10BDFFF7A0FFBC
:1006300010BD704710B5042000F0D2FF404C0028D8
:1006400004D1E078012801D1FFF70AFE0020E07014
:1006500010BD70B53A4C0025E078022805D3A0689B
:10066000002800D08047E57070BD042000F0B8FF7E
:10067000002802D0FFF798FFF5E700F013FF7D2177
:100680000901421800212F4800F0E6FF70BD10B5A7
:10069000042000F0A5FF0121294C002801D0A17001
:1006A00001E00020A0706078012807D1A078002820
:1006B00004D1E07800280CD0401CE070A078607075
:1006C00000F0F0FE0246323200211F4800F0C4FF65
:1006D00010BDE17000F0E6FE0246FF32F532002167
:1006E0001A4800F0B9FFE9E710B51548012141703B
:1006F00081700021C17001710321042000F076FF98
:1007000000F0D0FE7D210901421800210E4800F0C2
:10071000A3FF10BD0A490120487170470849002015
:100720004871704710B5FFF7DFFF0548012141719F
:100730000621017000218160FFF736FF10BD000027
:1007400018300020350602008F0602005306020012
:1007500000207047FB4905C805C10020704710B54F
:1007600000F0BFF900F0C9F900F0D3F900F0DDF9AD
:1007700010BD10B500F0D9F900F0CBF900F0BDF9CB
:1007800000F0AFF910BD70B50446002500F0CDF9BA
:10079000E009C00180280ED000F0BBF96006040E0D
:1007A00000F09FF96D1CEDB2082DEFD300F0BDF9FC
:1007B00000F097F970BD00F0A0F9EFE710B504461E
:1007C000FFF7CDFF7820FFF7DEFF0020FFF7DBFF0C
:1007D0002046FFF7D8FFFFF7CCFF10BD10B5044649
:1007E000FFF7BDFF7820FFF7CEFF4020FFF7CBFFDC
:1007F0002046FFF7C8FFFFF7BCFF10BD10B5044649
:10080000002906D0FFF7ABFF7820FFF7BCFF4020A0
:1008100005E0FFF7A4FF7820FFF7B5FF0020FFF702
:10082000B2FFE0B2FFF7AFFFFFF7A3FF10BD70B557
:100830000646002528460021B030FFF7DFFF0021E3
:100840000846FFF7DBFF00211020FFF7D7FF002449
:1008500001213046FFF7D2FF641CE4B2802CF7D3AD
:100860006D1CEDB2082DE5D370BD002805D0B64A49
:100870001146491EFDD1401EFAD1704704E0002107
:10088000491CC9B27B29FBD3401EF8D2704710B572
:100890000A46044610460021B030FFF7AFFF20099A
:1008A00000211030FFF7AAFF2007000F0021FFF7FB
:1008B000A5FF10BD10B500218D20FFF79FFF00217F
:1008C0001420FFF79BFF0021AF20FFF797FF10BD1B
:1008D00010B500218D20FFF791FF00211020FFF7B8
:1008E0008DFF0021AE20FFF789FF10BD70B50025F8
:1008F00028460021B030FFF781FF00210846FFF7AE
:100900007DFF00211020FFF779FF00240121002046
:10091000FFF774FF641CE4B2802CF7D36D1CEDB2BA
:10092000072DE5D370BD70B5002528460021B030F5
:10093000FFF764FF00210846FFF760FF0021102049
:10094000FFF75CFF002401210846FFF757FF641CF6
:10095000E4B2802CF7D36D1CEDB2082DE5D370BD49
:10096000F8B5002528460021B030FFF747FF0021E9
:100970000846FFF743FF00211020FFF73FFF7349B0
:100980000024E8014618E0086107714B490F325C0A
:10099000595C0A4000D0802253083018027C0A407B
:1009A00000D080221A43530802462032174612789C
:1009B0000A4000D080221A4353083A7C0A4000D0F3
:1009C00080221A43530802464032174612780A40E2
:1009D00000D080221A4353083A7C0A4000D080227B
:1009E0001A435308603002780A4000D080221A432C
:1009F000007C5208084000D0802010430121FFF7FE
:100A0000FDFE641CE4B2802CBDD36D1CEDB2082D3C
:100A1000A8D3F8BD10B56421E123DB001846401EC1
:100A2000FDD2491EFAD1AE20FFF7E8FE002140209A
:100A3000FFF7E4FE0021B020FFF7E0FE0021C82010
:100A4000FFF7DCFE00218120FFF7D8FE0021FF2008
:100A5000FFF7D4FE0021A120FFF7D0FE0021A62041
:100A6000FFF7CCFE0021A820FFF7C8FE00211F20C1
:100A7000FFF7C4FE0021D320FFF7C0FE0021084687
:100A8000FFF7BCFE0021D520FFF7B8FE0021F020C3
:100A9000FFF7B4FE0021D920FFF7B0FE002122208D
:100AA000FFF7ACFE0021DA20FFF7A8FE00210220AC
:100AB000FFF7A4FE0021DB20FFF7A0FE0021492064
:100AC000FFF79CFE00218D20FFF798FE00211420E7
:100AD000FFF794FE0021AF20FFF790FEFFF706FF1F
:100AE00010BD18481B4B006803218200D21811600A
:100AF000012181401848816070471248154B4068B9
:100B000003218200D21811600121814012488160C6
:100B100070470C480F4B406803218200D2181160C7
:100B2000012181400C48C16070470648094B0068AC
:100B300003218200D2181160012181400648C16062
:100B4000704700002430002065180000303000207D
:100B5000B816020000070050000500500449086064
:100B600070477047704770477047704770477047CD
:100B70002C30002030B50B460146002020220124F5
:100B800009E00D46D5409D4205D31D469540491BC1
:100B90002546954040191546521E002DF1DC30BD0A
:100BA000F0B507460846584087B0C00F049048008B
:100BB0000E46590040084908BC1A884105D23846FB
:100BC00031461E4617460B46024658004008104361
:100BD0004CD0300D039040055900400D490D059053
:100BE000401A0290402872DA18030121000B09050F
:100BF0000843019004980092002805D001995242C0
:100C00000020884100920190029840210A1A01991F
:100C1000009800F08BF905460C466B4607CB00F0B8
:100C2000A6F9C0197141039A0E0D0023D71756403B
:100C30001A467A40164344D0049A002A2DD0029ACC
:100C4000012A039A15DC1205C01A914101263605C6
:100C5000001C7141D20F059ED207009301920296AB
:100C60002A46234600F0A3F907B0F0BD38463146C6
:100C7000FAE71605224A0F46B218C01AB7410121F9
:100C80000905001C4F4100187F4111461818794191
:100C9000E20F10436D19644113E0E2076D0815433C
:100CA0006408C2071443039A01261205C01A914131
:100CB0003605001C7141CE07400830434908C01872
:100CC00051412A46234600F065F9CDE7FFE7049835
:100CD00001224000C117121A00238B4104983146AB
:100CE000C417381AA141EEE730B40124E407634089
:100CF00030BC55E730B40124E407614030BC4FE715
:100D00000000E0FFF0B51FB488B00B9909980024EB
:100D100048400999C00F490049080991C0070B993B
:100D20000090490049080B9109990898A646084384
:100D30001CD00B990A98084318D009980124400048
:100D4000420D4800410D099824050003000B204383
:100D500009900B980003000B20430B9050181C497E
:100D60004018002201901446104605E0002001467C
:100D70000DB0F0BD032801DA034600E003239C46D2
:100D8000C11A0AAE0AE05F0008ADED5B4F00F75BE9
:100D90007D430027AA187C41491C5B1E6145F2DD9A
:100DA000410004AB5A522104120C0A43240C401C8B
:100DB0000828DFDB019802900099704601910090AD
:100DC000059B049A0799069800F0F1F8D0E7000017
:100DD0000DFCFFFFF0B50C465C4085B0E40FE40766
:100DE00003944C00002664085900944649080246C2
:100DF0000296224321D062460A431ED06200570D5C
:100E00004A000E032303550D012402462C492405F4
:100E1000781B1B0B360B401823432643614600907A
:100E20001C46501AB44103D30098401C009002E0C5
:100E3000921800985B41002803DA0020014605B0B3
:100E4000F0BD0020012109050746864611E06446F1
:100E50001D46141BB54106D36546521BB34174466B
:100E600007430C43A646CD0740084908284392187B
:100E70005B4105460D43EAD11046184313D0604646
:100E8000194650407140084306D06046101AB341DD
:100E900006D20122002306E000220123DB0702E044
:100EA0000122D2435310009874460105381C614159
:100EB000029C039D0019694100F06CF8BFE7000037
:100EC000FD0300004A0009030123090B1B05194318
:100ED0000A4B10B5520D9A4202DA0020014610BDAD
:100EE000064B34339A4203DC9A1A00F02FF810BDF7
:100EF000034BD21800F01AF810BD0000FF030000E9
:100F0000CDFBFFFF10B5002904DB0124E4074042BC
:100F10008C412146002B04DB1C460123DB07524297
:100F2000A341994200D1904210BD000010B5202A83
:100F300004DB0146203A9140002010BD914020235F
:100F40009C1A0346E3401943904010BD10B5202A77
:100F500004DB0846203AD040002110BD0B46D340A8
:100F6000D0402024A21A91400843194610BD10B564
:100F7000202A06DBCB170846203A1041C1170B4345
:100F800006E00B461341D0402024A21A91400843AA
:100F9000194610BD10B5002B08DA0024401C614131
:100FA00092185B411A4301D14008400010BDF0B5D2
:100FB0001FB482B005460C0003D0084600F05EF86E
:100FC00002E000F05BF820300246009021462846FF
:100FD000FFF7ACFF049B059A04460F4618431143E4
:100FE000084314D0184610431BD0009840210A1A19
:100FF00018460599FFF7AAFF05460E46009A05997F
:101000000498FFF793FF084305D0012004E0204631
:10101000394607B0F0BD0020C11705430E432C43ED
:10102000374300990E986305401A7905E40A0022B7
:101030000C43FD0A0A3002D500200146E9E701050C
:10104000101969410C9C0D9D00196941FFF7A2FF21
:10105000DFE700000FB410B504A9074B02AA0398FC
:1010600000F030F8044602A9002000F0D3F9204631
:1010700010BC08BC04B01847151402002021020C53
:1010800001D010211046020A01D010460839020989
:1010900001D01046091F820801D01046891E42085F
:1010A00001D0881E7047081A704730B47446641E19
:1010B0002578641CAB4200D21D46635D5B00E318DB
:1010C00030BC1847FFB58FB00546002606E025283E
:1010D0000AD0129A119990476D1C761C2878002826
:1010E000F5D1304613B0F0BD002402940121B54A79
:1010F000009400E004436D1C2B780846203B984088
:101100001042F7D128782A280ED0022228780146EA
:101110003039092916D802990A2359433039401821
:1011200014436D1C0290F1E7109802C802911090D0
:10113000002904DA012040030443484202900220BF
:1011400004436D1C28782E2817D1042004436878A6
:101150006D1C2A280CD110986D1C02C800911090AB
:101160000BE000990A225143303940186D1C009061
:101170002878014630390929F3D928786C2810D00D
:1011800006DC4C281AD068280ED06A2817D104E053
:10119000742813D07A2812D110E0012040050443AE
:1011A0000CE00121090501E0032109050C436978E0
:1011B000814203D10120000524186D1C6D1C287884
:1011C000692874D006DC00288BD0632827D06428D7
:1011D00006D16CE06E2808D073282CD0752878D002
:1011E000129A11999047761C5FE06002400F022826
:1011F00009D003280DD00428109801680DD00E6086
:10120000001D109051E01098F21701680E604A60BE
:10121000F6E7109801680E80F2E70E70F0E710987C
:101220006A4601781173001D10900020507303A8C6
:101230000190012005E0109802C801911090002053
:10124000C04361070CD5002700E07F1C00998F4246
:101250000FDA8742F9DB0199C95D0029F5D108E071
:10126000002700E07F1C8742FCDB0199C95D002953
:10127000F8D102982146C01B0290129B119A00F0EF
:10128000B3F88019C61907E0019801990078491C44
:101290000191129A119990477F1EF5D22146129B17
:1012A000119A029800F090F886196D1C16E70A2032
:1012B0000190109901C910916102490F032900D1D1
:1012C00000B2042900D140B2002803DA40422D21A7
:1012D00003E00DE0210504D52B216A46117301219D
:1012E00003E0E10711D02021F7E70CAF0C9114E0E7
:1012F0000A200190109901C910916102490F032938
:1013000000D180B2042900D1C0B20021EDE70199DB
:10131000FFF730FC30317F1E39700028F7D104A868
:10132000C01B20300190600704D5012000048443D5
:10133000009801E0012000900199884201DD401AE7
:1013400000E00020411800900C9809180298401AFB
:101350000290E00306D42146129B119A029800F0F5
:1013600043F8861900200D9008E003A9085C129A42
:10137000119990470D98401C761C0D900C9988424D
:10138000F3DBE0030CD52146129B119A029800F082
:101390002BF8861904E0129A302011999047761C98
:1013A0000099481E00900029F5DC05E03878129A73
:1013B0007F1C11999047761C0199481E01900029C5
:1013C000F4DC6BE709280100F8B5044600251E4649
:1013D0001746880404D405E039462020B0476D1C28
:1013E000641EF9D52846F8BDFFB50446002581B036
:1013F0001E46C80301D5302700E02027880404D505
:1014000005E038460399B0476D1C641EF9D528469F
:1014100005B0F0BD0A68531C0B60107070470000E7
:10142000014B1B68DB6A18472C300020014800681C
:10143000806D00472C300020014A1268D26B1047A3
:101440002C30002001480068806B00472C300020C1
:1014500001490968096C08472C300020014B1B68C2
:10146000DB6D18472C30002001490968896C08475A
:101470002C30002001490968496C08472C300020B5
:1014800001490968C96C08472C30002001480068F0
:10149000006D00472C30002001480068406D004777
:1014A0002C30002001480068806800472C30002064
:1014B00001490968C96F08472C300020024B1B689E
:1014C00080331B68184700002C300020024B1B683B
:1014D00080335B68184700002C300020014800680A
:1014E000406B00472C300020024800688030C06804
:1014F000004700002C30002030B4034C24688034B6
:10150000E46AA44630BC60472C30002030B4034C61
:1015100024688034246AA44630BC60472C30002004
:101520007CB5069C0094079D034C0195246880348B
:10153000646BA0477CBD00002C30002038B5049CB3
:101540000094034C246880346469A04738BD0000CF
:101550002C300020024B1B6880331B6918470000A9
:101560002C30002038B5049C0094034C246880344F
:10157000A469A04738BD00002C30002030B4034CD3
:1015800024688034246BA44630BC60472C30002093
:1015900030B4034C24688034646AA44630BC60478D
:1015A0002C30002038B5049C0094034C246880340F
:1015B000E469A04738BD00002C30002030B4034C53
:1015C00024688034A468A44630BC60472C300020D6
:1015D000024909688031896A084700002C300020E0
:1015E00001490968096A08472C300020014A12683D
:1015F000926910472C30002001490968896A084720
:101600002C300020014A1268526A10472C3000200A
:10161000014A1268D26910472C3000200148006846
:10162000406F00472C30002001480068006F0047E1
:101630002C30002001490968896F08472C300020B0
:10164000014A1268D26E10472C3000200149096807
:10165000896E08472C300020014B1B685B681847D7
:101660002C300020014A1268126810472C300020EC
:10167000014A1268126E10472C300020014A12688D
:10168000526E10472C30002001490968C96808478C
:101690002C30002001490968096908472C300020D6
:1016A00001480068406900472C3000200149096862
:1016B000096B08472C3000208040201008040201EC
:1016C00005000000000000FEE300FEEF00FEE30066
:1016D000000000000000000000000000000000000A
:1016E00000000000000000000000000000000000FA
:1016F00000000000000000000000000000000000EA
:10170000090000003E00003E00003E000000000016
:101710000000003E00003E00003E0000000000000F
:1017200000000000000000000000000000000000B9
:1017300000000000000000000000000000000000A9
:101740000C600C0060EC0060FF00F03F00FE0D003C
:101750006E0C0060EC0060FF00F03F00FE0D006EBC
:101760000C00600C00000000000000000000000001
:101770000000000000000000000000000000000069
:101780000B000000783000FC7000FEF100C6C100C4
:10179000FFFF03FFFF0386C3001EFF001C7F00182E
:1017A0003E000000000000000000000000000000FB
:1017B0000000000000000000000000000000000029
:1017C00010000000FC0000FE0100860100860101FF
:1017D000FEC101FCF800003E00800F00E001007C2B
:1017E000FC001EFE0106860100860100FE0100FCD1
:1017F00000000000000000000000000000000000E9
:101800000F000000003C00007E0038FF00FCE300F9
:10181000FEC300E6C300C6EF00FEFF007C7C00387C
:101820007C00007E0000EE0000E6000040000000AA
:1018300000000000000000000000000000000000A8
:10184000040000003E00003E00003E0000000000DA
:101850000000000000000000000000000000000088
:101860000000000000000000000000000000000078
:101870000000000000000000000000000000000068
:1018800006000000C03F00F0FF01FCFF073E800F94
:10189000020008000000000000000000000000003E
:1018A0000000000000000000000000000000000038
:1018B0000000000000000000000000000000000028
:1018C000060000000200083E800FFCFF07F0FF0149
:1018D000C03F000000000000000000000000000009
:1018E00000000000000000000000000000000000F8
:1018F00000000000000000000000000000000000E8
:1019000008180000980000D001007E00007E000052
:10191000F001009800001800000000000000000026
:1019200000000000000000000000000000000000B7
:1019300000000000000000000000000000000000A7
:101940000C0000008003008003008003008003007F
:10195000F83F00F83F00F83F00800300800300805C
:1019600003008003000000000000000000000000F1
:101970000000000000000000000000000000000067
:101980000400000000E00400E00600E003000000A6
:101990000000000000000000000000000000000047
:1019A0000000000000000000000000000000000037
:1019B0000000000000000000000000000000000027
:1019C00007000000000E00000E00000E00000E00D8
:1019D000000E00000E0000000000000000000000EB
:1019E00000000000000000000000000000000000F7
:1019F00000000000000000000000000000000000E7
:101A00000400000000E00000E00000E00000000032
:101A100000000000000000000000000000000000C6
:101A200000000000000000000000000000000000B6
:101A300000000000000000000000000000000000A6
:101A40000600C00000FC00C03F00F803007E00005C
:101A50000600000000000000000000000000000080
:101A60000000000000000000000000000000000076
:101A70000000000000000000000000000000000066
:101A80000B000000F01F00FC7F00FC7F000EE00058
:101A900006C00006C0000EE000FC7F00FC7F00F0E6
:101AA0001F00000000000000000000000000000017
:101AB0000000000000000000000000000000000026
:101AC00009000000000000E000007000007000004D
:101AD000380000FEFF00FEFF00FEFF0000000000D7
:101AE00000000000000000000000000000000000F6
:101AF00000000000000000000000000000000000E6
:101B00000B00000018C0001CE0001EF8000EFC00D6
:101B100006DE0006CF008EC700FEC300FCC10078C1
:101B2000C0000000000000000000000000000000F5
:101B300000000000000000000000000000000000A5
:101B40000B0000001830001C70001EF00086E10041
:101B500086C100C6C100FEE300FC7F00787E000065
:101B60001C00000000000000000000000000000059
:101B70000000000000000000000000000000000065
:101B80000B001C00001E00801B00C0190070180014
:101B90003C1800FEFF00FEFF00FEFF0000180000E2
:101BA000180000000000000000000000000000001D
:101BB0000000000000000000000000000000000025
:101BC0000B000000803100F87100FEF100FEE00023
:101BD000C6C000C6C000C6E100C67F00867F000008
:101BE0001F000000000000000000000000000000D6
:101BF00000000000000000000000000000000000E5
:101C00000B000000F01F00FC7F00FC7F008EE10055
:101C1000C6C000C6C000CEE100DE7F008C7F000899
:101C20001E00000000000000000000000000000096
:101C300000000000000000000000000000000000A4
:101C40000B00000006000006000006F00006FE0083
:101C500086FF00E60F00F601007E00001E00000E69
:101C60000000000000000000000000000000000074
:101C70000000000000000000000000000000000064
:101C80000B000000383C007C7E00FEFF00CEE3002D
:101C900086C10086C100CEE300FEFF007C7E0038D6
:101CA0003C000000000000000000000000000000F8
:101CB0000000000000000000000000000000000024
:101CC0000B000000F02000FC7300FCF7000EE700A2
:101CD00006C60006C6000EE300FC7F00FC7F00F095
:101CE0001F000000000000000000000000000000D5
:101CF00000000000000000000000000000000000E4
:101D000005000000000000E0E000E0E000E0E0008E
:101D100000000000000000000000000000000000C3
:101D200000000000000000000000000000000000B3
:101D300000000000000000000000000000000000A3
:101D400005000000000000E0E004E0E006E0E00341
:101D50000000000000000000000000000000000083
:101D60000000000000000000000000000000000073
:101D70000000000000000000000000000000000063
:101D80000B000000800300800300C00700C00600B5
:101D9000E00E00600E00600C00701C00301C00386B
:101DA00038000000000000000000000000000000FB
:101DB0000000000000000000000000000000000023
:101DC0000B000000E01C00E01C00E01C00E01C0018
:101DD000E01C00E01C00E01C00E01C00E01C00E037
:101DE0001C000000000000000000000000000000D7
:101DF00000000000000000000000000000000000E3
:101E00000B000000383800301C00701C00600C0013
:101E1000600E00E00E00C00600C0070080030080D6
:101E200003000000000000000000000000000000AF
:101E300000000000000000000000000000000000A2
:101E40000C0000001800001C00001C00000E000028
:101E500006EE0006EF0086EF00CE0300FC0100FC5A
:101E600000007800000000000000000000000000FA
:101E70000000000000000000000000000000000062
:101E800014000000007F00C0FF01F080033800074D
:101E90001C3E0ECCFF0CECFF1CE6E118E67018C6E9
:101EA000FF18E6FF18E6FF18E6C7182C401C1C6058
:101EB0000C38380EF01F07C00703000001000000B7
:101EC0000F00800000F00000FE00807F00F01F0087
:101ED000FE1D007E1C000E1C007E1C00FE1D00F07E
:101EE0001F00807F0000FE0000F000008000000066
:101EF00000000000000000000000000000000000E2
:101F00000E000000000000FEFF00FEFF00FEFF00CC
:101F10008EE3008EE3008EE3008EE3008EE300FE8E
:101F2000E300FCFF00787E00003C000000000000A1
:101F300000000000000000000000000000000000A1
:101F40000E000000E00F00F83F00FC7F003C78002E
:101F50001EF0000EE0000EE0000EE0000EE0001C9F
:101F600070003C78003838001010000000000000BD
:101F70000000000000000000000000000000000061
:101F80000E000000000000FEFF00FEFF00FEFF004C
:101F90000EE0000EE0000EE0000EE0000EE0003E5D
:101FA0007000FC7F00F83F00E00F00000000000020
:101FB0000000000000000000000000000000000021
:101FC0000D000000000000FEFF00FEFF00FEFF000D
:101FD0008EE3008EE3008EE3008EE3008EE3008E3E
:101FE000E3008EE3000EE0000000000000000000AF
:101FF00000000000000000000000000000000000E1
:102000000C000000000000FEFF00FEFF00FEFF00CD
:102010008E03008E03008E03008E03008E03008E5D
:1020200003000E000000000000000000000000009F
:1020300000000000000000000000000000000000A0
:102040000F000000E00700F01F00F83F003C7800A0
:102050001C70000EE0000EE0000EE7000EE7000E20
:10206000E7001C77003C7F00387F00103F00000035
:102070000000000000000000000000000000000060
:102080000D000000FEFF00FEFF00FEFF00800300C9
:10209000800300800300800300800300800300FEB3
:1020A000FF00FEFF00FEFF00000000000000000037
:1020B0000000000000000000000000000000000020
:1020C00004000000FEFF00FEFF00FEFF0000000015
:1020D0000000000000000000000000000000000000
:1020E00000000000000000000000000000000000F0
:1020F00000000000000000000000000000000000E0
:102100000A001C00007C00007C0000F00000E000E1
:1021100000E00000E000FE7F00FE7F00FE3F0000C8
:1021200000000000000000000000000000000000AF
:10213000000000000000000000000000000000009F
:102140000E000000000000FEFF00FEFF00FEFF008A
:10215000800700C00300E00100F80700BC0F001E6C
:102160003E000EF80006F00002C000000000000073
:10217000000000000000000000000000000000005F
:102180000C000000000000FEFF00FEFF00FEFF004C
:1021900000E00000E00000E00000E00000E00000DF
:1021A000E00000E00000000000000000000000006F
:1021B000000000000000000000000000000000001F
:1021C00010000000FEFF00FEFF00FEFF000E0000FA
:1021D000FE0100FC3F0080FF0000F80080FF00FCD3
:1021E0003F00FE01000E0000FEFF00FEFF00FEFFAC
:1021F00000000000000000000000000000000000DF
:102200000D000000FEFF00FEFF00FEFF003C00008E
:10221000F00000E00300800F00003E00007800FEA8
:10222000FF00FEFF00FEFF000000000000000000B5
:10223000000000000000000000000000000000009E
:102240000F000000E00F00F83F00FC7F003C78002A
:102250001EF0000EE0000EE0000EE0000EE0001E9A
:10226000F0003C7800FC7F00F83F00E00F00000029
:10227000000000000000000000000000000000005E
:102280000D000000000000FEFF00FEFF00FEFF004A
:102290008E03008E03008E03008E0300DE0300FE1B
:1022A0000300FC0100F80000000000000000000036
:1022B000000000000000000000000000000000001E
:1022C00010000000E00F00F83F00FC7F003C7800A9
:1022D0001EF0000EE0000EE8000EFC000EF8001EDE
:1022E000F0003C7800FCFF00F8FF01E0CF01008027
:1022F00000000000000000000000000000000000DE
:102300000E000000000000FEFF00FEFF00FEFF00C8
:102310008E03008E03008E03008E0F008E1F00FEC2
:102320007D00FCF900F8E0000080000000000000E3
:10233000000000000000000000000000000000009D
:102340000D000000001800787800FC7800FCF10017
:10235000CEE1008EE3008EE3008EE3001EF7003C2A
:102360007F003C7F00303C000000000000000000C7
:10237000000000000000000000000000000000005D
:102380000C0000000E00000E00000E00000E000009
:10239000FEFF00FEFF00FEFF000E00000E00000E1C
:1023A00000000E000000000000000000000000001F
:1023B000000000000000000000000000000000001D
:1023C0000D000000FE1F00FE7F00FE7F0000F000F9
:1023D00000E00000E00000E00000E00000F000FE8F
:1023E0007F00FE7F00FE1F000000000000000000D4
:1023F00000000000000000000000000000000000DD
:102400000D0600003E0000FE0100F80F00C07F0036
:1024100000FE0000F00000FE00C07F00FC0F00FE88
:1024200001003E0000060000000000000000000067
:10243000000000000000000000000000000000009C
:10244000150600007E0000FE0700F8FF0080FF0078
:1024500000F80000FF00E03F00FC0700FE00001E47
:102460000000FE0000FC0700E03F0000FF0000F855
:102470000080FF00F8FF00FE0F007E000006000055
:102480000D00000006C0000EE0003EF800783C00A1
:10249000F01F00C00700C00700F01F00783C003E9E
:1024A000F8000EE00006C000000000000000000080
:1024B000000000000000000000000000000000001C
:1024C0000D0600000E00003E0000780000F0010044
:1024D000C0FF0080FF00C0FF00F001007800003E58
:1024E00000000E00000600000000000000000000D8
:1024F00000000000000000000000000000000000DC
:102500000C00F0000EF8000EFC000EFE000EEF00B6
:102510008EE700CEE300EEE100FEE0007EE0003E4C
:10252000E0001EE0000000000000000000000000CD
:10253000000000000000000000000000000000009B
:1025400007000000000000FEFF0FFEFF0FFEFF0F60
:102550000E000E0E000E0000000000000000000043
:10256000000000000000000000000000000000006B
:10257000000000000000000000000000000000005B
:10258000060600007E0000F80700803F0000FC0007
:1025900000C000000000000000000000000000007B
:1025A000000000000000000000000000000000002B
:1025B000000000000000000000000000000000001B
:1025C000050E000E0E000EFEFF0FFEFF0FFEFF0FAA
:1025D00000000000000000000000000000000000FB
:1025E00000000000000000000000000000000000EB
:1025F00000000000000000000000000000000000DB
:102600000B000000000100C00100F00100FC000010
:102610001E00001E0000FC0000F00100C0010000D0
:1026200001000000000000000000000000000000A9
:10263000000000000000000000000000000000009A
:102640000C00000C00000C00000C00000C00000C42
:1026500000000C00000C00000C00000C00000C003E
:10266000000C00000C000000000000000000000052
:10267000000000000000000000000000000000005A
:10268000040200000600000E000008000000000028
:10269000000000000000000000000000000000003A
:1026A000000000000000000000000000000000002A
:1026B000000000000000000000000000000000001A
:1026C0000C000000803800C07C0060FE0060C60086
:1026D00060C60060C300606300E07F00C0FF008050
:1026E000FF0000800000000000000000000000006B
:1026F00000000000000000000000000000000000DA
:102700000C000000FEFF00FEFF00FEFF00C06000A6
:1027100060C00060C00060C000E0E000C07F00C09A
:102720007F00001F0000000000000000000000000B
:102730000000000000000000000000000000000099
:102740000B000000001F00C07F00C07F00E0E00021
:1027500060C00060C000E0E000C07100C071000017
:102760001100000000000000000000000000000058
:102770000000000000000000000000000000000059
:102780000C000000001F00C07F00C07F00E0E000E0
:1027900060C00060C00060C000C06000FEFF00FEBE
:1027A000FF00FEFF0000000000000000000000002D
:1027B0000000000000000000000000000000000019
:1027C0000B000000001F00C07F00C07F00E0E6009B
:1027D00060C60060C600E0E600C07700C077000079
:1027E00017000000000000000000000000000000D2
:1027F00000000000000000000000000000000000D9
:1028000008600000600000FCFF00FEFF00FEFF000B
:1028100066000066000006000000000000000000E6
:1028200000000000000000000000000000000000A8
:102830000000000000000000000000000000000098
:102840000C000000001F06C07F06C0FF0EE0E00C79
:1028500060C00C60C00C60C00CC0600EE0FF0FE0F8
:10286000FF07E0FF03000000000000000000000080
:102870000000000000000000000000000000000058
:102880000C000000FEFF00FEFF00FEFF00C0000085
:10289000400000600000600000E00000E0FF00C0B9
:1028A000FF0080FF000000000000000000000000AA
:1028B0000000000000000000000000000000000018
:1028C00004000000E6FF00E6FF00E6FF0000000055
:1028D00000000000000000000000000000000000F8
:1028E00000000000000000000000000000000000E8
:1028F00000000000000000000000000000000000D8
:102900000400000CE6FF0FE6FF0FE6FF07000000E3
:1029100000000000000000000000000000000000B7
:1029200000000000000000000000000000000000A7
:102930000000000000000000000000000000000097
:102940000B000000FEFF00FEFF00FEFF00000F0076
:10295000000700800F00C03F00E0F80060E00020AA
:10296000C0000000000000000000000000000000A7
:102970000000000000000000000000000000000057
:1029800004000000FEFF00FEFF00FEFF000000004C
:102990000000000000000000000000000000000037
:1029A0000000000000000000000000000000000027
:1029B0000000000000000000000000000000000017
:1029C00012000000E0FF00E0FF00E0FF00C0000098
:1029D000600000600000600000E0FF00E0FF00C059
:1029E000FF00C00000600000600000600000E0FF29
:1029F00000C0FF0080FF0000000000000000000099
:102A00000C000000E0FF00E0FF00E0FF00C000005D
:102A1000400000600000600000E00000E0FF00C037
:102A2000FF0080FF00000000000000000000000028
:102A30000000000000000000000000000000000096
:102A40000C000000001F00C07F00C07F00E0E0001D
:102A500060C00060C00060C000E0E000C07F00C057
:102A60007F00001F000000000000000000000000C8
:102A70000000000000000000000000000000000056
:102A80000C000000E0FF0FE0FF0FE0FF0FC0600050
:102A900060C00060C00060C000E0E000C07F00C017
:102AA0007F00001F00000000000000000000000088
:102AB0000000000000000000000000000000000016
:102AC0000C000000001F00C07F00C07F00E0E0009D
:102AD00060C00060C00060C000C06000E0FF0FE0A8
:102AE000FF0FE0FF0F0000000000000000000000EA
:102AF00000000000000000000000000000000000D6
:102B000008000000E0FF00E0FF00E0FF00C0000060
:102B10006000006000006000000000000000000095
:102B200000000000000000000000000000000000A5
:102B30000000000000000000000000000000000095
:102B40000B000000802300C06700E0E70060C600C3
:102B500060CE0060CE0060CC00E0FC00C07C008055
:102B6000380000000000000000000000000000002D
:102B70000000000000000000000000000000000055
:102B800006600000F07F00F8FF00FCFF0060C0005E
:102B900060C0000000000000000000000000000015
:102BA0000000000000000000000000000000000025
:102BB0000000000000000000000000000000000015
:102BC0000C000000E03F00E07F00E0FF0000E000BC
:102BD00000C00000C00000C000006000E0FF00E096
:102BE000FF00E0FF00000000000000000000000007
:102BF00000000000000000000000000000000000D5
:102C00000C000000600000E00300E00F00803F00C7
:102C100000FC0000F00000FC00803F00E00F00E03E
:102C20000300600000000000000000000000000041
:102C30000000000000000000000000000000000094
:102C40000F600000E00300E03F0000FF0000F00024
:102C500000FF00E01F00E00100E01F0000FF000097
:102C6000F00000FF00E03F00E00300600000000013
:102C70000000000000000000000000000000000054
:102C80000B000000208000E0E000E0F100C07F00C9
:102C9000001F00001F00C07F00E0F100E0E0002006
:102CA00080000000000000000000000000000000A4
:102CB0000000000000000000000000000000000014
:102CC0000B600000E0030CE00F0C807F0E00FC0F97
:102CD00000E00700FC01807F00E00F00E0010060E1
:102CE00000000000000000000000000000000000E4
:102CF00000000000000000000000000000000000D4
:102D00000A00000060E00060F00060F80060DC0095
:102D100060CE0060C700E0C300E0C100E0C000007A
:102D200000000000000000000000000000000000A3
:102D30000000000000000000000000000000000093
:102D400008000000000C00001E00F8FF07FCFF0F49
:102D5000FEF30F0E000E0E000E000000000000003B
:102D60000000000000000000000000000000000063
:102D70000000000000000000000000000000000053
:102D800004000000000000FEFF1FFEFF1F00000007
:102D90000000000000000000000000000000000033
:102DA0000000000000000000000000000000000023
:102DB0000000000000000000000000000000000013
:102DC000070E000E0E000EFEF30FFCFF0FF8FF07BC
:102DD000001E00000C0000000000000000000000C9
:102DE00000000000000000000000000000000000E3
:102DF00000000000000000000000000000000000D3
:102E00000B000700800300800300800300800300A4
:102E1000800700000700000700000700000700808F
:102E2000030000000000000000000000000000009F
:102E30000000000000000000000000000000000092
:102E400005F87F00F87F00084000F87F00F87F0059
:102E50000000000000000000000000000000000072
:102E60000000000000000000000000000000000062
:102E70000000000000000000000000000000000052
:102E8000C0160200081515217F0000000000000098
:102E90000000000000000000000000000000000032
:102EA0000000000000000000000000000000000022
:0C2EB00000000000000000000000000016
:0400000500000000F7
:00000001FF
